:020000040800F2
:10000000C8870020310300086D2F00082D2200084A
:10001000792C0008B91000080D4900080000000004
:10002000000000000000000000000000790200084D
:10003000ED13000800000000CD020008B53B0008E9
:100040004B0300084B0300084B0300084B03000858
:100050004B0300084B0300084B0300084B03000848
:100060004B0300084B0300084B0300084B03000838
:100070004B0300084B0300084B0300084B03000828
:100080004B0300084B0300084B0300084B03000818
:100090004B0300084B0300084B0300084B03000808
:1000A0004B0300084B0300084B0300084B030008F8
:1000B000893C0008993C0008AD3C00084B0300084F
:1000C0004B0300084B0300084B0300084B030008D8
:1000D0004B03000891420008B1420008D9450008CE
:1000E0004B0300084B0300084B0300084B030008B8
:1000F0004B0300084B0300084B0300084B030008A8
:100100004B0300084B030008C13C00084B030008E8
:100110004B0300081D4100084B0300084B03000877
:100120004B0300084B0300084B0300084B03000877
:100130004B0300084B0300084B0300084B03000867
:100140004B0300084B0300084B0300084B03000857
:100150004B0300084B0300084B0300084B03000847
:100160004B0300084B0300084B0300084B03000837
:100170004B0300084B0300084B0300084B03000827
:100180004B0300084B03000800F002F800F064F88D
:100190000AA090E8000C82448344AAF10107DA45E2
:1001A00001D100F059F8AFF2090EBAE80F0013F0D0
:1001B000010F18BFFB1A43F001031847CCB200002F
:1001C000ECB200000A444FF0000C10F8013B13F0B1
:1001D000070408BF10F8014B1D1108BF10F8015BA0
:1001E000641E05D010F8016B641E01F8016BF9D193
:1001F00013F0080F1EBF10F8014BAD1C0C1B09D1EA
:100200006D1E58BF01F801CBFAD505E014F8016B5B
:1002100001F8016B6D1EF9D59142D6D370470000ED
:100220000023002400250026103A28BF78C1FBD8FF
:10023000520728BF30C148BF0B607047642900F0E7
:100240000381732900F06482002070471FB509F014
:1002500068FD1FBD10B510BD00F0AEFA1146FFF7E6
:10026000F5FF06F049F800F0CCFA03B4FFF7F2FF0F
:1002700003BC05F069FE00002A4B19680868B0E865
:10028000F04F80F30988BFF36F8F4FF0000080F3C9
:10029000118870470000000006480068006880F37D
:1002A000088862B661B6BFF34F8FBFF36F8F00DF70
:1002B00000BF00BF08ED00E0DFF80C00016841F46A
:1002C00070010160704700BF88ED00E0EFF3098026
:1002D000BFF36F8F134B1A681EF0100F08BF20ED8D
:1002E000108A20E9F04F106008B44FF0500080F3FE
:1002F0001188BFF34F8FBFF36F8F08F065F84FF091
:10030000000080F3118808BC19680868B0E8F04F55
:100310001EF0100F08BFB0EC108A80F30988BFF3FD
:100320006F8F704734010020EFF3058070470000A5
:100330000948804709480047FEE7FEE7FEE7FEE779
:10034000FEE7FEE7FEE7FEE7FEE7FEE704480549B5
:10035000054A064B70470000C93B000889010008A8
:10036000C8810020C8870020C8830020C8830020DF
:10037000704700000FB4044910B503AA029800F0BA
:10038000CBF910BC5DF814FB200100202DE9F041F1
:100390000E460446002020622046E168884730B3BC
:1003A000252805D0D4E901219047206A401CF2E7B6
:1003B000E168204600278847050018D0A5F14100D4
:1003C000192802D820354FF40067324629462046C6
:1003D0002760FFF733FF40B1012804D0F61D26F057
:1003E00007060836D8E7361DD6E72846DAE7206A3A
:1003F000BDE8F08170B50C460546012A05D0287885
:10040000800600D5EA69002302E0012305E05B1CB9
:10041000934202D2E05C0028F9D1A869E618C01A1C
:10042000A861286A184428622846AFF3008004E0D7
:10043000D5E9012114F8010B9047B442F8D32846BE
:10044000AFF3008070BD00002DE9F04106460024A6
:1004500010687529314616A510D0AFF3008000282A
:1004600002DA404213A507E031688A0701D512A5D8
:1004700002E0490704D511A5012401E0AFF3008093
:1004800000210A2206F1240709E0B0FBF2FCB0FBD0
:10049000F2F302FB1C00303078541846491C002847
:1004A000F3D123462A463046BDE8F04100F0ADB80E
:1004B000000000002D0000002B00000020000000C4
:1004C000032A40F2308010F0030C00F0158011F880
:1004D000013BBCF1020F624498BF11F801CB00F858
:1004E000013B38BF11F8013BA2F1040298BF00F8AC
:1004F00001CB38BF00F8013B11F0030300F01E816F
:10050000083AC0F0088051F8043B083A51F804CB8F
:10051000A0E80810F5E7121D5CBF51F8043B40F855
:10052000043BAFF30080D20724BF11F8013B11F860
:1005300001CB48BF11F8012B24BF00F8013B00F8A4
:1005400001CB48BF00F8012B704702F0FF0343EADC
:10055000032242EA024200F002B84FF000020429EE
:10056000C0F0128010F0030C00F01B80CCF1040CE2
:10057000BCF1020F18BF00F8012BA8BF20F8022B16
:10058000A1EB0C0100F00DB85FEAC17C24BF00F8BC
:10059000012B00F8012B48BF00F8012B70474FF0EA
:1005A000000200B5134694469646203922BFA0E8C3
:1005B0000C50A0E80C50B1F12001BFF4F7AF0907CF
:1005C00028BFA0E80C5048BF0CC05DF804EB8900C0
:1005D00028BF40F8042B08BF704748BF20F8022B03
:1005E00011F0804F18BF00F8012B7047704770471B
:1005F0007047704710B500F0D3F8006810BD10B513
:10060000044600F0CDF8046010BD2DE9F0470D461A
:1006100099469246044600F124080168880604D5EC
:10062000E06921F01001216000E00120A84201DD15
:10063000471B00E00027A1697A1902EB0900081A9C
:10064000A0612078C00602D42046AFF300800026C7
:1006500008E0D4E901211AF806009047206A401CFE
:10066000761C20624E45F4DB2078C0060AD5204671
:10067000AFF3008006E0D4E9012130209047206AE2
:10068000401C2062381EA7F10107F4DC07E0D4E922
:10069000012118F805009047206A401C2062281E9E
:1006A000A5F10105F3DC2046AFF3008020780006B9
:1006B00002D50220BDE8F0870120FBE701694A1C52
:1006C00002610878704700B58FB0CDE90131002193
:1006D000059105497944CDE9031011466846FFF7B5
:1006E00055FE0FB000BD0000E5FFFFFF10B54369E8
:1006F00013B1AFF3008001E0FFF77CFE012010BDD5
:10070000127800F124010A7000224A700122EDE7FC
:1007100011684FF0FF32E9E7074B70B50D467B4497
:10072000FFF7D1FF0446284600F03EF810B14FF025
:10073000FF3070BD204670BD835B000010B5203ACD
:10074000C0F00B80B1E81850203AA0E81850B1E88A
:100750001850A0E81850BFF4F5AF5FEA027C24BF40
:10076000B1E81850A0E8185044BF18C918C0BDE837
:1007700010405FEA827C24BF51F8043B40F8043B00
:1007800008BF7047D20728BF31F8023B48BF11F8B5
:10079000012B28BF20F8023B48BF00F8012B70470F
:1007A0000048704764810020007B00F080007047A3
:1007B00000487047648100207546FFF7F9FFAE4698
:1007C00005006946534620F00700854618B020B55D
:1007D000FFF7BCFDBDE820404FF000064FF00007DA
:1007E0004FF000084FF0000B21F00701AC46ACE8D9
:1007F000C009ACE8C009ACE8C009ACE8C0098D4646
:10080000704710B50446AFF300802046BDE81040A5
:10081000FFF72BBD0029816802D041F0010101E002
:1008200021F0010181607047084B10B5D3F8042313
:1008300007490A40D0E900142143D0E902400443AB
:1008400021431143C3F8041310BD000000200140F0
:10085000E030FCFFC06C80B2704702460020126896
:100860000A4200D00120704730B542680F4B0C7926
:100870001A400B6842EA04221343436082680C4B1F
:100880004D791A40D1E9034323438C6844EA450477
:10089000234313438360C26A097D22F47002491E18
:1008A000C9B242EA0151C16230BD0000FFFEFFFC47
:1008B000FDF7FFC070B5072609290AD9C568A1F15F
:1008C0000A0404EB4404A640B543A3401D43C5609D
:1008D00007E0056901EB4104A640B543A3401D4371
:1008E00005611F23072A09D2446B521E02EB8202C4
:1008F00093409C4391400C43446370BD0D2A09D240
:10090000046BD21F02EB820293409C4391400C4344
:10091000046370BDC46A0D3A02EB820293409C43AB
:1009200091400C43C46270BD816841F08041816098
:1009300070470000FEB58848D0ED000A9FED871A89
:100940009FED870A10EE810AF3EE0B0A80EE201A63
:10095000BDEEC10A10EE103A642B00DD642381481D
:1009600090ED000ADFED800A20EE200ABDEEC00AFD
:1009700010EE100A002800DA40427C4991ED000A8E
:1009800020EE200ABDEEC00A10EE101A002900DA8F
:100990004942774C2278A2B100222270754C764DE4
:1009A00026782D68012E0ED0002A09D1734AECB2A8
:1009B0001278CDE90042CAB2C1B271A0FFF7DAFCE9
:1009C000FEBD0122E9E774480078042820D00528FC
:1009D0002ED0032849D002286FD0704890ED000A2D
:1009E0006F48BDEEC00A10EE103A90ED000A6D4857
:1009F000BDEEC00A10EE102A90ED000A6AA0BDEE0E
:100A0000C00A10EE101AFFF7B5FC00202070FEBDE2
:100A1000694890ED000A6948BDEEC00A10EE103A30
:100A200090ED000A6648BDEEC00A10EE102AE3E71A
:100A300064480068CDE90050634890ED000A6348BF
:100A4000BDEEC00A10EE103A90ED000A6048BDEE0F
:100A5000C00A10EE102A90ED000A5EA0BDEEC00A9A
:100A600010EE101AFFF786FCCFE75F4800780128E8
:100A700013D0022822D0032830D05C4890ED000A21
:100A80005B48BDEEC00A10EE103A90ED000A5948DE
:100A9000BDEEC00A10EE102AAEE7574890ED000AEE
:100AA0005648BDEEC00A10EE103A90ED000A5448C8
:100AB000BDEEC00A10EE102A9EE71FE0514890EDEF
:100AC000000A5148BDEEC00A10EE103A90ED000A3F
:100AD0004E48BDEEC00A10EE102A8DE74C4890ED4E
:100AE000000A4C48BDEEC00A10EE103A90ED000A24
:100AF0004948BDEEC00A10EE102A7DE7474890ED48
:100B0000000A4748FDEEC00A90ED000A4548BDEED8
:100B1000C00A90ED001A4448BDEEC11A8DED001ACE
:100B20008DED010ACDED020A90ED000A3F48BDEEC1
:100B3000C00A10EE103A90ED000A3D48BDEEC00A22
:100B400010EE102A90ED000A3AA0BDEEC00A10EE99
:100B5000101AFFF70FFC58E72C00002000007A4421
:100B600000401C46F08000200000C84204810020A4
:100B700050020020EF0100206000002078000020DB
:100B80007B412025643A25643A25643A25643A2558
:100B9000647D0A2400000000F1010020C40100204F
:100BA000C0010020AC0100207B4325643A25643A53
:100BB00025647D2400000000B4010020B001002065
:100BC000FC01002064000020BC010020B8010020CE
:100BD000000200207B4325643A25643A25643A25C7
:100BE000643A25647D240000A9010020AC000020A7
:100BF000A8000020A4000020940000209000002005
:100C00008C0000208800002084000020800000204C
:100C1000A00000209C00002098000020C4000020BC
:100C2000C0000020BC000020B8000020B40000205C
:100C3000B00000207B4325643A25643A25643A25B8
:100C4000643A25643A25647D240000002DE9F041D2
:100C50008CB00121062002F05BFC4FF4807801216A
:100C6000404602F085FC03251D4F01268DF81C50DF
:100C7000002406968DF81F4006A9384600F08EFF26
:100C8000022006908DF81C508DF81F4006A93846AA
:100C900000F084FF0121404602F076FC002140462E
:100CA00002F072FC089430040B94CDE9090408A802
:100CB000FFF7BAFD8DF8044000948DF805400294CA
:100CC0000494084C8DF8146069462046FFF7CCFD6B
:100CD00001212046FFF79EFD0CB0BDE8F081000029
:100CE000000402400020014010B530EEC01A544C00
:100CF000544984ED171AD4ED191A71EE811A11EEC8
:100D0000900AC4ED191A9FED502A884202DD84ED45
:100D1000192A08E011EE900A4C49884203D9DFED08
:100D20004C1AC4ED191A4B480078DFED4B1A4449B0
:100D300030EEC00A0328D1ED1A2A30EE620A2DD017
:100D4000012844D002285BD0D4ED0A0A60EE810A63
:100D50009FED423AC0EE832AD4ED0C0A94ED193A85
:100D600060EE830A80EEA13AD4ED0B1A20EE210A40
:100D7000C0EE021A72EEC30A30EEE10A84ED180AE0
:100D8000374884ED1A1A90ED000ABDEEC00A10EE45
:100D9000100A03F0B1F901284BD04EE0D4ED070A58
:100DA000D4ED192A20EE812AC2EE210A94ED092AF7
:100DB00022EE222AC2EE212A94ED082A20EE020A0F
:100DC00080EE212A70EEA20A30EE820AD6E7D4ED38
:100DD000040A94ED193A60EE812AC2EEA10AD4ED1C
:100DE000062A62EE832A82EEA13AD4ED051A20EE9D
:100DF000210AC0EE021A70EE830A30EEA10ABDE7A6
:100E0000D4ED010AD4ED192A20EE812ADFED150A6E
:100E1000C2EE201A94ED032A22EE222AC2EE202AE4
:100E200071EEA20AD4ED021A41EE800AC4ED180A4E
:100E3000A6E79FED0D0A84ED190A94ED180A10BD7E
:100E40007C00002000007A4400007A4400007AC44C
:100E500000007AC4A90100200050C3470050C3C756
:100E60002C0000200000C8420000000001F026BA5B
:100E70001CB505F023FADFF81882864D864EDFF8A0
:100E80001CA2DFF81C9240F6B83B002401900A2116
:100E900001A807F0C7F8D8F808004746584501DA16
:100EA000401CB86001F0DCF8322005F0C1F80128E0
:100EB00002D0022820D112E07878401CC0B27870AD
:100EC000042806D0052807D030B1062814D97C7034
:100ED00012E005F04FF80FE002F0B6FA0CE03878B7
:100EE00018B10020387010B106E00120FAE74FF485
:100EF000E1616C48FFF753FBF8787978884207D0B6
:100F0000401CF87002F070F8F878062800D9FC70E0
:100F10007878062809D001280AD003280BD00428A5
:100F20000CD0052816D010B329E000F0ABFE26E067
:100F300001F0B6FC23E001F047FD20E0B878401C4A
:100F4000C0B2B870042801D00BD818E0BC7000F013
:100F500077FF14E0B878401CC0B2B870042802D003
:100F60000DD9BC700BE0BC7000F0F4FF07E001F09D
:100F7000E7FD01F021FE00F03BF900F0D9F84A4806
:100F800090ED000ABDEEC00A10EE100A03F0B4F8AE
:100F900010B94648006828B100231A461946184679
:100FA000009451E0D5ED020A95ED000A01F0DCFA5B
:100FB00000EE100AB8EEC00A85ED010AD6ED020A6D
:100FC00096ED000A01F00EFB00EE100A5746B8EE4F
:100FD000C00A86ED010ADAED020A9AED000A01F074
:100FE0003FFB00EE100A4B46B8EEC00A87ED010A3F
:100FF000D9ED020A99ED000A01F070FB00EE100A2B
:1010000044F27400B8EEC00A83ED010A01F050FD0D
:101010002748007830B1012819D002281BD00328B6
:101020007FF435AF009493ED010ABDEEC00A10EED7
:10103000103A97ED010ABDEEC00A10EE102A96EDA7
:10104000010AB1EE400A15E002F0C2FC1FE71948A0
:101050000068009000E0009493ED010ABDEEC00A24
:1010600010EE103A97ED010ABDEEC00A10EE102AFC
:1010700096ED010ABDEEC00A10EE101A95ED010AB8
:10108000B1EE400ABDEEC00A10EE100ADCE7000027
:10109000F0010020F0800020048100201881002051
:1010A0002C810020080800202C0000205400002083
:1010B000A9010020CC010020FEE700007CB5012141
:1010C000084602F025FA01208DF8040000208DF872
:1010D000060003208DF805000220074D4FF48074B0
:1010E0008DF8070000946946284600F057FD214618
:1010F000284600F0A6FD7CBD0000024010B5044665
:1011000001F0AAF9462001F071F901F0F7F9002881
:10111000FBD1204601F06AF901F0F0F90028FBD17B
:1011200001F0C2F9BDE81040052005F071B80000DB
:1011300010B502F027FD782005F06AF802F0D4FA25
:1011400010490C460878497801EB002080B208F07D
:1011500031FA9FED0D1B53EC112B08F05FF808F0EE
:10116000E5F980B26080B0F5FA6F04D34FF4807176
:10117000074800F068FD608800EE100AB8EE400AEB
:1011800010BD000014010020333333333333F33FF9
:10119000000002401CB50121042002F0B9F9002032
:1011A0008DF804004FF4806100918DF807006946C6
:1011B000014800F0F3FC1CBD000802401CB50121F1
:1011C000042002F0A5F901208DF8040080020090AF
:1011D00000208DF8060002218DF805108DF807001B
:1011E0006946024800F0DAFC1CBD0000000802401D
:1011F0002DE9F0412DED068B00F0D6F8524F4FF45B
:1012000080663146384600F01EFD3146384600F013
:1012100011FD4E4C4E4D002879D13146384600F034
:1012200009FD0028F9D03146384600F003FD0128B9
:10123000F9D000F091F800EE100AB8EE409A00F0F4
:101240008BF800EE100AF8EE408A00F085F800EE08
:10125000100AB8EE408A00F07FF800EE100AF8EEAF
:10126000409A00F079F80AEE100A3146384600F04C
:10127000E8FC372004F0E8FF3146384600F0E3FC94
:1012800039EE280AF8EE4A0A30EE080A30EE290A4A
:10129000B4EE600AF1EE10FA39D119EE101A2D48A9
:1012A000814234DC18EE101A814230DC18EE901ABC
:1012B00081422CDC18EE101A814228DCB2EE040ABE
:1012C00039EE000AFCEEC00A10EE900AF1EE0C0AAC
:1012D000A07078EE600ABCEEE01A11EE100ABCEEC7
:1012E000E81AE07011EE100ABCEEE91A207011EE57
:1012F000100A607085ED000AC5ED020AC5ED018A8D
:10130000C5ED039ABDEC068BBDE8F081FFE7A07840
:1013100000EE100AB8EE400A85ED000AE07800EE13
:10132000100AB8EE400A85ED020A207800EE100A95
:10133000B8EE400A85ED010A607800EE100AB8EEBA
:10134000400A85ED030ADDE700080240080100209D
:10135000882D00200000C8422DE9F041114E0025E3
:101360004FF480673946304600F064FC0028F9D01D
:101370001E2004F069FF6006040E3946304600F076
:1013800059FC012801D144F001043946304600F0EF
:1013900051FC0128F9D06D1CEDB2082DE2D3204696
:1013A000BDE8F0810008024070B5FFF707FF0E4D61
:1013B0004FF480642146284600F045FC1E2004F0CE
:1013C00043FF2146284600F03CFC142004F020FF97
:1013D0002146284600F037FC1E2004F035FFBDE80A
:1013E0007040FFF7D7BE00000008024070470020A1
:1013F000401C1E28FCDB70472DE9F047BF4BDFF88F
:101400000083C04EC04FC14AC14DC24C2DED0C8B64
:10141000B0EE408AB0EE0CCAB8EE0CBA187860B9DB
:10142000B0EE480A02F00EFBBB4890ED008AD0ED0A
:10143000010A90ED021A1878E8B3C0B2DFEDB7CA1E
:10144000B6EE00DA01286CD002287CD003283DD10A
:1014500092ED000AD8ED000A30EE200A60EE010A93
:10146000B0EE480AB0EE4C1A00EECD0A00EE8D8ABE
:10147000F0EE4B0A85ED020A84ED020A86ED028A3F
:1014800087ED028A06F0F2FA85ED020A94ED020A6F
:10149000B0EE4C1AF0EE4B0A06F0E8FA84ED020AC0
:1014A00096ED020AB0EE4C1AF0EE4B0A06F0DEFAA8
:1014B00086ED020A00E00DE097ED020AB0EE4C1A4C
:1014C000F0EE4B0A06F0D2FA87ED020ABDEC0C8B67
:1014D000BDE8F08798ED000AD2ED002A70EE881A78
:1014E00078EE600A30EE220AB0EE612A41EE401A30
:1014F00001EE002AC5ED021AF0EE612AF0EE601A44
:1015000041EE000A41EE401AB0EE4C1AB0EE620A0B
:10151000C4ED021A86ED022AC7ED020AF0EE4B0A6C
:10152000B0E7DFED7FBA92ED000AF0EE418A914616
:1015300020EE0D0A10EE100A08F082FB41EC190BA8
:1015400018EE900A00E0B3E008F07AFB41EC100BD3
:1015500004F01EF8B0EE40AAF0EE60AAD8F8000041
:1015600008F06EFB53EC1A2B07F058FE53EC192BC6
:1015700008F07CFA07F064FD01EE900A9FED691A0D
:10158000DFED690AB0EE680A06F070FAB5EEC00A3F
:10159000F0EE408AF1EE10FA16D099ED000AF0EE66
:1015A000610A40EE4D0A60EE880A80EEA11AF0EE64
:1015B000610A40EE0D0A20EE880AC0EE210A85ED90
:1015C000021AC4ED020A03E085ED028A84ED028A64
:1015D0009FED560A28EE800A10EE100A08F030FB44
:1015E00041EC1A0B18EE900A08F02AFB41EC100BA4
:1015F0009FED4F1B03F0A4F99FED4F1B51EC100B17
:1016000053EC112B08F026F841EC190B18EE900A58
:1016100008F016FB41EC100B9FED491B03F090F90D
:101620009FED491B51EC100B53EC112B08F012F8F5
:1016300053EC192B07F036FD53EC1A2B08F016FA71
:101640009FED431B53EC112B07F02CFD07F0F8FC2A
:1016500000EE100ADFED400A414BB0EE4C1A70EE7E
:10166000600A9FED3E0A00EEAB0AF0EE4B0ABDEEBB
:10167000C00A83ED000A95ED020A06F0F7F985ED40
:10168000020A94ED020AB0EE4C1AF0EE4B0A06F094
:10169000EDF984ED020AC6ED02CAC7ED02CA40F6B2
:1016A00098024FF44871186806F0F0F918600DE7D9
:1016B00092ED000A61EE000AB0EE480AB0EE4C1A54
:1016C00000EECD0A00EE8D8AF0EE4B0A85ED020A9F
:1016D00084ED028A06F0CAF985ED020A94ED020A49
:1016E000B0EE4C1AF0EE4B0A06F0C0F984ED020A97
:1016F000C6ED02CAC7ED02CAE8E60000A901002053
:10170000E8010020188100202C810020E401002045
:10171000F080002004810020E48000200000000010
:10172000D7231F440AD7A33E48E1FABEE5D0E23FE3
:10173000000000000000004000000000D34DF43F16
:101740000000000000000840000000809318E4BF83
:10175000000000E07A14FC3FD7A3E03F0080BB44C8
:10176000CC0100201CB50121082001F0D1FE082089
:10177000009000208DF8040003208DF80500012062
:101780008DF807006946024800F008FA1CBD000009
:10179000000C0240F0B5012189B0084601F0D0FEEE
:1017A0000121032001F0B4FE03258DF80550022627
:1017B0004FF400408DF8046001242B4F00908DF809
:1017C00006408DF807406946384600F0E7F98DF885
:1017D00005508DF804608DF806408DF8074008200C
:1017E000224C00906946204600F0D8F901220F21D2
:1017F000384600F00FFA01220321204600F00AFAD1
:1018000002A802F06FFC00244FF6FF70ADF808400C
:1018100003907507ADF81040ADF80A4002A92846BC
:1018200002F022FC00231A460321284602F074FA33
:1018300005A802F0E0FAADF81C4005A9284602F020
:1018400084FA0121284602F04FFA01221146284667
:1018500002F0D9FA0021284602F0DCFB01212846DB
:1018600002F045FA09B0F0BD000002400004024059
:1018700030B589B00121022001F062FE0121022071
:1018800001F046FE3020039003208DF81100022065
:101890008DF8100001208DF81200224C8DF81300F5
:1018A00003A9204600F07AF902220421204600F024
:1018B000B1F902220521204600F0ACF9684602F099
:1018C00011FC00244FF6FF70174DADF80040019059
:1018D000ADF80840ADF802406946284602F0C4FB66
:1018E00000231A460321284602F016FA05A802F042
:1018F00082FAADF81C4005A9284602F026FA01211B
:10190000284602F0F1F901221146284602F07BFA3E
:101910000021284602F07EFB0121284602F0E7F96B
:1019200009B030BD000402400004004030B589B069
:101930000121042001F004FE0121022001F0E8FD54
:10194000C020039003208DF8110002208DF81000B4
:1019500001208DF81200224C8DF8130003A92046B7
:1019600000F01CF902220621204600F053F9022261
:101970000721204600F04EF9684602F0B3FB002430
:101980004FF6FF70174DADF800400190ADF80840DC
:10199000ADF802406946284602F066FB00231A466D
:1019A0000321284602F0B8F905A802F024FAADF8A0
:1019B0001C4005A9284602F0C8F90121284602F07A
:1019C00093F901221146284602F01DFA002128460B
:1019D00002F020FB0121284602F089F909B030BD50
:1019E000000402400008004030B589B00121082001
:1019F00001F0A6FD0121084601F08AFD03200390B5
:101A00008DF8110002208DF8100001208DF81200D1
:101A1000224C8DF8130003A9204600F0BFF80222E3
:101A20000021204600F0F6F802220121204600F0B5
:101A3000F1F8684602F056FB00244FF6FF70184D8F
:101A4000ADF800400190ADF80840ADF8024069469D
:101A5000284602F009FB00231A460321284602F01B
:101A60005BF905A802F0C7F9ADF81C4005A92846A6
:101A700002F06BF90121284602F036F901221146E5
:101A8000284602F0C0F90021284602F0C3FA0121DD
:101A9000284602F02CF909B030BD000000000240D9
:101AA000000C004070B53B4B3B4C05221D88658106
:101AB00022802088668933F81010B14200D36181FA
:101AC000401C80B220807B28F3D3A581228020880F
:101AD000A58933F81010A94200D8A181401C80B21A
:101AE00020807B28F3D36089A189084440082082A4
:101AF0002280228833F81210814214D903EB42016C
:101B00004D8885420FD98D8885420CD9CD88854274
:101B100009D20D89854206D24989814203D291B208
:101B2000891CA18004E0521C91B221807629E0D367
:101B3000762161808AB233F81210814214D203EB0D
:101B400042014D8885420FD28D8885420CD2CD88C6
:101B5000854209D90D89854206D94989814203D92F
:101B600090B2801CE08004E0521E91B26180052991
:101B7000E0D8E088A18808444008E0812189401A23
:101B800004F0D6FB5A2801D92089E081E089208120
:101B900070BD00006802002018000020F0B500228F
:101BA00001274FF0030C0B6807FA02F52B40AB42FC
:101BB0002CD1066853000CFA03F4A64306600E7994
:101BC000D0F800E09E4046EA0E0606600E79012E2F
:101BD00001D0022E12D18668A64386604E79D0F8D5
:101BE00008E09E4046EA0E0686604668AE434660C0
:101BF00045688E799640B6B235434560C568A543C1
:101C0000C560CC799C40C3681C43C460521C102A38
:101C1000C9D3F0BD4B07DB0E9A40C90810B500EBE5
:101C20008100016A0F249C40A1430162016A1143B3
:101C3000016210BD0246002012690A4200D0012054
:101C4000704741837047018370470AB10183704731
:101C50004183704710B50A4C0146072301222046F4
:101C6000FEF728FE2046FEF75FFE02212046FEF723
:101C7000F4FD0028F9D02046BDE81040FEF7EABD8B
:101C800000200140F0B4614861490378DFED612A2A
:101C900061480E780578614804789FED611A614AC1
:101CA000DFED611A614F9FED622A624897ED000AED
:101CB0006149F1EE400A43B1092C67D2DFE804F034
:101CC0006644474A4F52575A6300092C24D2DFE832
:101CD00004F02305080B0E13181B1E0080ED000AEC
:101CE0000CE080ED000A04E080ED001A01E0C0ED98
:101CF000000AC2ED000A76E0C0ED000A82ED001A8B
:101D000071E0C0ED000A04E080ED001A01E080ED12
:101D1000000A82ED000A66E080ED001A82ED001AEA
:101D2000012E02D0012D05D00BE0C0EE220A20EEDC
:101D3000820A03E0C0EE220A20EEA10A81ED000A29
:101D400051E081ED001A4EE080ED000A0CE080EDDC
:101D5000000A01E080ED001AC1ED001A0EE0C0EDAE
:101D6000000AF9E7C0ED000A81ED001A06E0C0EDB7
:101D7000000A01E080ED001A81ED002A012E08D052
:101D8000012D09D00AE080ED000AF5E780ED001A88
:101D9000EAE781ED002A01E0C1ED001A012B04D031
:101DA000022B0DD0032B0BD01DE091ED000AF0EEBD
:101DB000000A20EE200AF2EE020A80EE201AC0E7A6
:101DC000D0ED000AF5EEC00AF1EE10FAD1ED000AEE
:101DD00003D2F1EE600AC1ED000A20EE800AC0EEE7
:101DE000220AC1ED000AD0ED000A9FED141A80EE20
:101DF000810A80ED000AD2ED001AC1EE810AC2ED1F
:101E0000000A91ED001AF0BCFFF7F6BAA901002014
:101E1000EC0100200000FA43ED010020C901002080
:101E200000000000D4010020DB0FC9BFAC0100207E
:101E3000DB0FC93FD0010020D801002000007A4408
:101E40003548364A3649D0ED030ADFED371AC2ED80
:101E5000000A0988403900EE101A3249B8EEC01A5B
:101E600080ED111A91ED000A304921EE000A91ED42
:101E7000002A314920EE210AD0ED121A80ED121A03
:101E80002C4871EE611A007861EE821A9FED282AC3
:101E900001EEC20A30B101280BD002280CD0032871
:101EA0001AD02CE0B0EE601A20EE010A9FED231A42
:101EB00021E09FED231A1EE0B0EE601AB5EEC01AC5
:101EC000F1EE10FA01D2B1EE400AB0EE601A20EE47
:101ED000010A9FED1C1A0EE0B0EE601AB5EEC01AB2
:101EE000F1EE10FA01D2B1EE400AB0EE601A20EE27
:101EF000010A9FED151AC0EE011AC1ED001A9FEDFF
:101F0000131A134880EE810A82ED000A91ED001A3F
:101F1000D0ED000AFFF770BAF0010020D0010020D8
:101F200026000020B0010020CDCCCCBDB4010020A3
:101F3000CDCCCC3DA9010020D80100200050434762
:101F40000000E14300DC824700089D4600007A441F
:101F5000D40100203449354A3548D1ED040AC2ED98
:101F6000000A0068434200EE103A324BB8EEC00A55
:101F700093ED001ACB6CC31A01EE903A2F4B20EE72
:101F8000010AF8EEE11A9FED2C1A93ED002AC864BD
:101F900020EE010A61EE821A29482A4901EEC10A9F
:101FA000007830B101280BD002280CD003281AD0B9
:101FB0002CE0B0EE601A20EE010A9FED231A21E01A
:101FC0009FED221A1EE0B0EE601AB5EEC01AF1EED7
:101FD00010FA01D2B1EE400AB0EE601A20EE010A0A
:101FE0009FED1B1A0EE0B0EE601AB5EEC01AF1EECE
:101FF00010FA01D2B1EE400AB0EE601A20EE010AEA
:102000009FED141AC0EE011AC1ED001A9FED121ACD
:10201000124880EE810A82ED000A91ED001AD0ED9F
:10202000000AFFF7E9B90000F0010020D00100200C
:1020300050000020B8010020CDCCCC3DBC010020D8
:10204000A9010020D8010020005043470000E143CF
:1020500000DC824700089D4600007A44D40100203D
:1020600010B502202DED048B01F05AFB354C206099
:10207000032001F055FB6060042001F051FBA060DB
:10208000052001F04DFB3049E0600978C9B3012912
:1020900038D0022936D0032904D142E000EE100ADC
:1020A000B8EEC08A9FED291A294869EE810A90EDA1
:1020B000000A284860EE801AD0ED000A264881EE1A
:1020C000A02A69EE011A61EE801A80ED002A81EEE5
:1020D000A02A68EE811A214828EE011A61EE801AC2
:1020E00021EE000A80EE201A80ED002A1C4881EEC5
:1020F000A02A80ED002A1B4880ED001ABDEC048B5D
:1021000010BD0EE094ED000A6168F8EEC09A4942F5
:1021100000EE101AB8EEC09A94ED020AF8EEC08AEA
:10212000BCE794ED000AA168F8EEC09A94ED010AAC
:1021300049424042B8EEC09A00EE101AF8EEC08A4A
:10214000ACE7000040810020A90100200000C84247
:10215000E0010020DC010020F0800020048100204C
:10216000188100202C81002010B50820FFF772FD97
:1021700007F020FA9FED0E1B53EC112B07F06AFAC3
:102180009FED0D1B53EC112B07F064FA9FED0C1B18
:1021900053EC112B07F05EFA9FED0B1B53EC112B48
:1021A00007F058FA06F04CFF00EE100A10BD0000D0
:1021B0006666666666660A4000000000000026400B
:1021C00000000040E17AF03F000000000000303FD6
:1021D0001148F2EE040A114990ED031A81EE200A2B
:1021E00090ED021A30EE010A90ED011AC1EE201AAC
:1021F000D0ED000A71EEA00A10EE900A884201DDCF
:10220000DFED070A074890ED001A0748008801EE45
:10221000900AF8EE611A7047882D00200000BE4237
:102220000000BE421001002016010020FEE7000061
:102230001CB50121022001F06BF9C020012400909F
:102240008DF8044000208DF8060002208DF805006E
:102250008DF8074069460448FFF7A0FC0348C0F822
:102260009842C0F89C421CBD0004024000804042DD
:1022700070B5104D4FF48074002221462846FFF7B8
:10228000E4FC01F0DFFA002261000B48FFF7DDFCFF
:10229000022003F0D9FF012221462846FFF7D5FC92
:1022A000022003F0D1FF21462846BDE870400022FD
:1022B000FFF7CBBC00000240000802402DE9FC41C2
:1022C0000121084601F024F90121042001F020F940
:1022D00001248DF80440DFF84C804FF480768DF8AF
:1022E0000640032700968DF8057069464046FFF7C3
:1022F00055FC8DF8044065028DF806400A4C0095A7
:102300008DF8057069462046FFF748FC01223146EA
:102310004046FFF79AFC012229462046FFF795FC2C
:10232000BDE8FC81000002400008024070B5104D7D
:102330004FF48074002221462846FFF786FC01F006
:1023400081FA012251020B48FFF77FFC022003F0C3
:102350007BFF012221462846FFF777FC022003F08D
:1023600073FF21462846BDE870400022FFF76DBC90
:1023700000000240000802402DE9F047804600249A
:1023800001F04CFA174FDFF860A000254FF480767B
:102390004FF40079002231463846FFF756FC022000
:1023A00003F052FF012231463846FFF74EFC60062B
:1023B000040E49465046FFF73DFC08B1641CE4B2E8
:1023C000012003F041FF6D1CEDB2082DE2D3B8F1FE
:1023D000000F04D0FFF74CFF2046BDE8F087FFF761
:1023E000A5FFF9E700000240000802402DE9F04790
:1023F000054601F027FA164F4FF480760022314649
:102400003846FFF722FCDFF84C9000244FF40078A8
:10241000EA0941464846FFF718FC6806050E022007
:1024200003F012FF012231463846FFF70EFC02206E
:1024300003F00AFF002231463846FFF706FC02206F
:1024400003F002FF641CE4B2082CE1D3BDE8F0877E
:1024500000000240000802402DE9F04101F0F2F9CD
:1024600001220F4D540221462846FFF7EEFB0122C0
:102470000C4F160231463846FFF7E7FB042003F005
:10248000E3FE002221462846FFF7DFFB042003F08D
:10249000DBFE31463846BDE8F0410022FFF7D5BBF0
:1024A00000080240000002402DE9F04101F0CAF9A5
:1024B000104D4FF48074002221462846FFF7C5FBDB
:1024C0000D4F6600002231463846FFF7BEFB042060
:1024D00003F0BAFE012221462846FFF7B6FB01228F
:1024E00031463846FFF7B1FBBDE8F041042003F068
:1024F000ABBE000000000240000802402DE9F041A0
:10250000002401F08BF90122154E55022946304670
:10251000FFF79BFB012003F097FE0122DFF84480C8
:10252000170239464046FFF790FB012003F08CFE6E
:1025300008E0641CE4B2FA2C04D9FFF7B5FF0120CF
:10254000BDE8F08129463046FFF774FB0028F0D142
:10255000002239464046FFF778FB0020F0E70000F4
:102560000008024000000240174830EEC00A174938
:10257000D0ED070A174A91ED001A70EE600A14496F
:1025800060EE810A91ED001A41EE000A90ED061A04
:1025900070EE810A10EE901AC0ED060A914203DD3A
:1025A000DFED0D0AC0ED060A10EE901A0B4A9142BB
:1025B00003D9DFED0B0AC0ED060A80ED070ABDEE78
:1025C000E00A10EE100A7047F0010020C001002060
:1025D000C40100200040834600408346004083C67B
:1025E000004083C6174830EEC00A1749D0ED0A0AEA
:1025F000174A91ED001A70EE600A144960EE810AE4
:1026000091ED001A41EE000A90ED091A70EE810A70
:1026100010EE901AC0ED090A914203DDDFED0D0ABC
:10262000C0ED090A10EE901A0B4A914203D9DFED72
:102630000B0AC0ED090A80ED0A0ABDEEE00A10EEB1
:10264000100A7047F0010020C0010020C4010020E2
:102650000040834600408346004083C6004083C656
:10266000174830EEC00A1749D0ED0D0A174A91ED10
:10267000001A70EE600A144960EE810A91ED001AAA
:1026800041EE000A90ED0C1A70EE810A10EE901ADD
:10269000C0ED0C0A914203DDDFED0D0AC0ED0C0A1E
:1026A00010EE901A0B4A914203D9DFED0B0AC0EDF0
:1026B0000C0A80ED0D0ABDEEE00A10EE100A70471C
:1026C000F0010020C0010020C4010020004083462A
:1026D00000408346004083C6004083C6174830EE62
:1026E000C00A1749D0ED100A174A91ED001A70EE92
:1026F000600A144960EE810A91ED001A41EE000A69
:1027000090ED0F1A70EE810A10EE901AC0ED0F0ACC
:10271000914203DDDFED0D0AC0ED0F0A10EE901AB5
:102720000B4A914203D9DFED0B0AC0ED0F0A80ED91
:10273000100ABDEEE00A10EE100A7047F00100200A
:10274000C0010020C40100200040834600408346B1
:10275000004083C6004083C61CB50121102000F054
:10276000D7FE00218DF80410032101208DF80510FB
:1027700000908DF8070069460148FFF70FFA1CBD6D
:10278000001002407CB50121084600F0C1FE012086
:102790008DF8040000228DF8062003218DF8051025
:1027A000074D4FF480548DF8070000946946284681
:1027B000FFF7F4F921462846FFF745FA7CBD0000F3
:1027C000000002402DE9F043DFF8C89087B048468A
:1027D00001F0B4FF01210C2000F09AFE0121080550
:1027E00000F0AEFE2C4F08220C213846FFF712FAFB
:1027F000DFF8A880082202214046FFF70BFA0225E5
:102800008DF804500024B8148DF8064000908DF81F
:10281000055001268DF8076069463846FFF7BEF976
:102820008DF8045004208DF8064000908DF8055076
:102830008DF8076069464046FFF7B0F935208DF8FE
:1028400018008DF819608DF81A408DF81B6006A8E5
:1028500000F08EFB4FF4E1200290ADF810400C2008
:10286000ADF80C40ADF81200ADF80E40ADF81440D4
:1028700002A9484601F0F0FF012240F225514846E6
:1028800001F0D1FF0121484601F04DFF07B0BDE83E
:10289000F08300000050004000080240000C02409D
:1028A0002DE9F041DFED3B1A00203B4D3B4C024649
:1028B000B0EE610A01464FF093764FF4906704EB57
:1028C000C003D3ED010A10EE903A2B44B34222D953
:1028D00034F83030A3F1010CBCF5E07F1BD810EECA
:1028E00090CADFF8B4E0521CCEF1000ED2B2F4452B
:1028F00002DA30EE800A0AE010EE90CADFF8A0E0BB
:10290000F44504DD9FED271A70EEC10AF1E7C82BEC
:1029100001D2491CC9B2401CB842D0DB234CDFEDC8
:10292000220A234BC4ED000A2AB1082906D99FEDDB
:10293000210A84ED000AC3ED001A1CE01E48B5EE22
:10294000C00AC4ED001AF1EE10FA00780ADD18B1E1
:10295000C4ED000A012802D0B7EE080A09E09FED95
:10296000170A06E018B1C4ED000A01280ED0BFEE28
:10297000080A83ED000A124893ED001A94ED000A4C
:10298000D0ED000ABDE8F041FEF736BD9FED0D0A1F
:10299000EFE7000000000000000090BD08080020E4
:1029A000000096430000B4439A99993ED00100205C
:1029B000D80100209A9999BEA9010020DB0F493F58
:1029C000D4010020DB0F49BF2DE9F0472F4D002433
:1029D0002DED028B2046DFED2C8A2D4FDFF8B480E1
:1029E000DFF8B4C02D4EC5ED008A01234FF4906985
:1029F00006EBC00149683944414511D2DCF85C104E
:102A000019B936F83010CCE91613DCF8582036F82E
:102A100030106432914203D2641C00EE101AE4B20A
:102A2000401C4845E4DBDCED160A1D48B8EE400AC0
:102A3000F8EE600A00789FED1B8A1B4E1B4F48B1D1
:102A4000FEF752F987ED000AC5ED008A86ED008A8F
:102A50004CB10CE0FEF748F986ED000AC5ED008A9E
:102A600087ED008AF4E786ED008A87ED008A97ED0E
:102A7000001AD6ED000AB0EE680ABDEC028BBDE884
:102A8000F047FEF7B9BC00009A99993ED0010020AA
:102A9000FFFF79BCFFFF0100F001002008080020C3
:102AA000A901002000000000D4010020D80100206E
:102AB00000EE900A41421E4AB8EEE01A00EE901A6B
:102AC00000B592ED010AF8EEE00A04F0CFFF00EE47
:102AD000900A82ED010A174AB8EEE01A00EE901A49
:102AE00092ED010AF8EEE00A04F0C0FF00EE900A51
:102AF00082ED010A104AB8EEE01A00EE901A92ED4B
:102B0000010AF8EEE00A04F0B1FF00EE900A82ED4F
:102B1000010A0A4AB8EEE01A00EE901A92ED010A94
:102B2000F8EEE00A04F0A2FF82ED010A00BD000009
:102B3000F080002004810020188100202C810020DA
:102B400010B58CB00121042000F0E2FC0121480204
:102B500000F00EFD04200A9003208DF82C000024C4
:102B60008DF82F400AA91248FFF718F80694079429
:102B7000089406A80994FDF757FE00948DF80440C8
:102B80000120029404940B4C8DF805008DF814007C
:102B900069462046FDF768FE002301220C212046ED
:102BA000FDF788FE01212046FDF734FE0CB010BD74
:102BB000000802400021014010B5254C0A21207870
:102BC000B0FBF1F201FB1200C0BB0820FFF742F896
:102BD00080B206F0EFFC9FED1F1B53EC112B06F0AB
:102BE00039FD9FED1E1B53EC112B06F033FD06F053
:102BF00027FA00EE100ADFED1B0A70EEC00A80EE25
:102C0000801AB2EE040A61EE000AB3EE0A1A80EEF0
:102C1000810A10EE100A07F013F841EC100B9FED3B
:102C2000121B01F08DFE9FED121B51EC100B53ECAB
:102C3000112B06F00FFD06F003FA6060642003F02C
:102C4000E7FA2078401C207094ED010A10BD0000C6
:102C50000C0100206666666666660A400000000099
:102C60000000303F33335340000000C0F753F7BF3C
:102C7000000000A09B945840FEE700002DE9F041C1
:102C80008846074601218AB0880400F071FC0121C2
:102C9000022000F03DFC1F4E032209213046FEF7C2
:102CA000B9FF7015009002208DF8040003208DF804
:102CB000050000248DF8064001258DF8075069466F
:102CC0003046FEF76BFF144EADF808800397ADF861
:102CD0001050ADF80A4002A9304601F0C5F9602055
:102CE000ADF81400ADF81650ADF8204005A93046F7
:102CF00001F092F80821304601F0BEF8012130467B
:102D000000F0E8FF0121304600F0F1FF0AB0BDE815
:102D1000F081000000040240004801402DE9F0412C
:102D20008846074601218AB0084600F021FC0121AF
:102D3000102000F0EDFB354E012209213046FEF750
:102D400069FF01220B213046FEF764FF01220D21AD
:102D50003046FEF75FFF01220E213046FEF75AFF94
:102D60004FF4D440059002208DF8180003208DF810
:102D7000190000248DF81A4001258DF81B5005A973
:102D80003046FEF70BFF224EADF81C800897ADF8D9
:102D90002450ADF81E4007A9304601F065F96020C7
:102DA000ADF80000ADF80250ADF80C406946304671
:102DB00001F032F86946304601F064F86946304661
:102DC00001F0AAF86946304601F0EAF808213046D9
:102DD00001F052F80821304601F094F808213046FD
:102DE00001F0D8F80821304601F00AF901213046F7
:102DF00000F087FF0121304600F06CFF01213046D2
:102E000000F075FF0AB0BDE8F0810000001002403C
:102E1000000001402DE9F0438946804601218BB036
:102E2000080400F0A5FB0121102000F071FB254FE4
:102E3000032205213846FEF7EDFE0322062138461F
:102E4000FEF7E8FE02208DF8180003208DF8190027
:102E5000002460268DF81A40012505968DF81B5038
:102E600005A93846FEF79AFE174FADF81C90CDF82D
:102E70002080ADF82450ADF81E4007A9384601F077
:102E8000F3F8ADF80060ADF80250ADF80C406946BB
:102E9000384600F0C1FF6946384600F0F3FF0821CC
:102EA000384600F0E9FF0821384601F02BF80121EF
:102EB000384600F00FFF0121384600F018FF0BB034
:102EC000BDE8F08300100240004001402DE9F041D0
:102ED0008846074601218AB0480400F049FB0121D9
:102EE000022000F015FB1F4E032208213046FEF79A
:102EF00091FEB015009002208DF8040003208DF89B
:102F0000050000248DF8064001258DF8075069461C
:102F10003046FEF743FE144EADF808800397ADF837
:102F20001050ADF80A4002A9304601F09DF860202B
:102F3000ADF81400ADF81650ADF8204005A93046A4
:102F400000F06AFF0821304600F096FF012130466C
:102F500000F0C0FE0121304600F0C9FE0AB0BDE815
:102F6000F08100000004024000440140704700006E
:102F700030B50F23C27801780125FAB1144A1268DE
:102F800001F1E02102F4E062C2F5E062C2F307223F
:102F9000C2F10404D3404278A24084781C40144318
:102FA000220181F80024007800F01F018D404009C3
:102FB000800000F1E020C0F8005130BD01F01F009A
:102FC00085404809800000F1E020C0F8805130BD04
:102FD0000CED00E002490843024908607047000018
:102FE0000000FA050CED00E010B40021084B0A4681
:102FF000002003EBC004401CC0B262548028F8D308
:10300000491CC9B20829F3D310BC00F0D3B80000A2
:103010006803002010B57F2816D83F2914D807234D
:10302000A3EBD10301F00701C1F107040121A14085
:10303000064CDBB204EBC000002AC25CC9B201D06E
:103040000A4300E08A43C25410BD00006803002018
:103050002DE9F04116460D4607460024FFF7DAFF3A
:10306000324629463846FFF7D5FF2819C1B2324605
:103070003846FFF7CFFF641CE4B2082CF5D3BDE857
:10308000F08100007CB50121082000F041FA012602
:103090008DF8046000244FF4F0408DF80640009055
:1030A0008DF805408DF8074069464048FEF776FDEB
:1030B0000121080700F044FA012000F023FA002063
:1030C00000F0B6FA002000F01DFA394DC5F8B04204
:1030D000642005F52C7503F09BF82E600021AE20CE
:1030E00000F090F90021D52000F08CF9002150204B
:1030F00000F088F90021A82000F084F900213F2089
:1031000000F080F90021D32000F07CF9002108466E
:1031100000F078F90021402000F074F900218D20A2
:1031200000F070F90021142000F06CF9002120203B
:1031300000F068F90021022000F064F90021A120CC
:1031400000F060F90021C02000F05CF90021DA20D5
:1031500000F058F90021122000F054F900218120DC
:1031600000F050F90021EF2000F04CF90021D920A7
:1031700000F048F90021F12000F044F90021DB20A3
:1031800000F040F90021302000F03CF90021A4209B
:1031900000F038F90021A62000F034F90021AF201A
:1031A00000F030F9FFF720FF7CBD0000000C02406A
:1031B0000080414270B5104E002505F1B000C0B24C
:1031C000002100F01FF90021084600F01BF9002142
:1031D000102000F017F9002406EBC4000121405D27
:1031E00000F010F9641CE4B2802CF5D36D1CEDB234
:1031F000082DE2D370BD0000680300202DE9F04FD8
:10320000203A98460D468346894602F0FF0A00267A
:103210002EE0B8F10C0F08D0174901EB0A10002777
:10322000845D200607D5099A08E014490AEB4A0094
:1032300001EB8000F3E7099890B100222946584637
:10324000FFF7E8FE6D1C6006EDB2040EA5EB090168
:10325000414507D10BF101004D4600F0FF0B05E0A1
:103260000122EBE77F1CFFB2082FDAD3761CF6B2FF
:103270004645CED3BDE8F08F9AA20008269E0008EE
:103280002DE9F843FCEEC00A0746144610EE905AAA
:10329000884600EE905AF8EE600A30EE600ADFEDE4
:1032A0001B0A20EE200A10EE100A06F0C9FC9FED62
:1032B000181B53EC112B05F0F5FE06F037F9064606
:1032C00002232A4641463846009400F025F80A2D8C
:1032D00001D3204600E060083844C5B201272346E8
:1032E0002E22414628460097FFF788FF0A21B6FBA9
:1032F000F1F1303105EB5400CAB2C0B22346414669
:103300000097FFF77BFFBDE8F88300000000C8428C
:10331000000000000000E03F2DE9FF4F81B00027D2
:10332000DDF838B01D46924680463C464FF0010914
:103330004FEA5B0627E0281B401EC1B20A2002F0BC
:10334000FBFFBAFBF0F00A21B0FBF1F201FB120027
:1033500027B9691E8C4201DA48B101273030C2B268
:1033600006FB0480C0B25B46CDF8009006E006FB89
:103370000480C0B25B462022CDF800900299FFF78E
:103380003DFF641CE4B2AC42D5D305B0BDE8F08F7C
:10339000F8B516460D460446012714E07A2C02D9EA
:1033A00000241035EDB23A2D03D900242546FFF74D
:1033B0001BFE009732780C2329462046FFF71EFF9C
:1033C0000834E4B2761C30780028E7D1F8BD00005C
:1033D00070B50A4D0A4E002435F814003188884231
:1033E00001D2012200E0002200212046FFF730FE3A
:1033F000641CE4B2802CEFD370BD00006802002092
:103400002800002030B500230E4A012411B1C2F873
:10341000AC4201E0C2F8AC320021C2F8B832050675
:1034200002D5C2F8B44201E0C2F8B432C2F8B842E0
:103430004006491C000EC9B20829EED3C2F8AC42BE
:1034400030BD000000804142F0B58DB00121052063
:1034500000F05EF801210E02304600F089F80320EA
:103460008DF80400244F1025002400958DF80740A6
:1034700069463846FEF792FB009501258DF8045009
:103480008DF806408DF805408DF8075069461B48B9
:10349000FEF784FB8DF8045020208DF80640009044
:1034A0008DF805408DF8075069463846FEF776FBE3
:1034B0000121304600F038F80021304600F034F8A1
:1034C000089428040B94CDE9090408A8FDF7ACF989
:1034D0008DF80C4002948DF80D4004940694084C2D
:1034E0008DF81C5002A92046FDF7BEF901212046A7
:1034F000FDF790F90DB0F0BD000002400008024059
:1035000000200140014908627047000000000E429F
:10351000044A0029116801D0014300E08143116091
:103520007047000030380240044A0029116801D079
:10353000014300E0814311607047000014380240ED
:10354000044A0029116801D0014300E08143116061
:103550007047000040380240044A0029116801D039
:10356000014300E0814311607047000020380240B1
:10357000044A0029116801D0014300E08143116031
:103580007047000044380240044A0029116801D005
:10359000014300E08143116070470000243802407D
:1035A00070B5204B1968204C11F00C0104D0661046
:1035B000042903D0082903D004601BE0066019E049
:1035C000184A121F1168C1F38055116801F03F01BC
:1035D00015B1B6FBF1F101E0B4FBF1F1146812682A
:1035E000C4F388146143C2F30142521C5200B1FB80
:1035F000F2F1016019680F2202EA11110B4A545CC2
:103600000168E14041601C68072505EA9424145DC7
:1036100021FA04F484601B6805EA5333D25CD1407C
:10362000C16070BD083802400024F400240100206D
:10363000054900220A700A70012802D0042801D12D
:103640000520087070470000703802402DE9F047EF
:103650000025224F01262C46C7F8946207F52577EE
:10366000FDF7C5FE1E4A0021C2F8901202F5247231
:10367000FDF7BDFE3960FDF7BAFE1160FDF7B7FE3C
:103680001660FDF7B4FE3960FDF7B1FE1660FDF778
:10369000AEFE3E60FDF7ABFE3E60A7F52577FDF779
:1036A000A6FE1160FDF7A3FEDFF838908846C7F844
:1036B0009482FDF79CFE0420FEF7CCFA010929F85C
:1036C0001410641CE4B2C7F89462FDF790FE6D1C00
:1036D000EDB2802DEBD3BDE8F08700000000404242
:1036E000000041426802002010B5FEF7B5FE4720F9
:1036F000FEF77CFEFEF702FF0028FBD10120FEF75B
:103700003BFE064C20700020FEF736FE6070FEF790
:10371000CBFEBDE81040052002F07ABD1401002068
:103720000021022807D003280BD004280BD005283D
:103730000BD0002070474FF08042506A516200B2B7
:103740007047044A02E0044A00E0044A106811602D
:1037500000B270472404004024080040240C0040BC
:1037600010B551EC100B2DED048BF0EE628AB0EE2B
:10377000429AF0EE619AB0EE418A05F061FCBDEE2E
:10378000E90A134910EE102ABDEEC90A086081ED5E
:10379000018A10EE103AC1E90223C1ED048A9900B2
:1037A000514300EE101A0B49B8EEC00A81ED000A31
:1037B0009FED090A094928EE800A81ED000A0849AF
:1037C0000860084880ED008ABDEC048B10BD000045
:1037D00050810020DC010020DB0F4940E001002087
:1037E000E4010020E801002007490320DFED072A5B
:1037F0000870B2EE0A2AF3EE0E1A9FED051A9FED3D
:10380000050BFFF7ADBF0000A9010020B81E853DE4
:10381000E926313E000000C09DEFC73F1CB54FF4C4
:103820000070009000208DF804008DF80700032040
:103830008DF8050069460248FEF7B0F91CBD00008E
:10384000000802401CB54FF40070009001208DF874
:1038500004008DF8060003208DF805006946024833
:10386000FEF79CF91CBD0000000802402DE9F04164
:10387000884606468AB001210220FFF779FE012121
:103880000420FFF745FE02208DF818000002059085
:1038900003208DF8190000241E4F8DF81A400125D1
:1038A0008DF81B5005A93846FEF778F90322092147
:1038B0003846FEF7AFF90896174EADF81C80ADF804
:1038C0002440ADF81E4007A9304600F0CDFB602033
:1038D000ADF80000ADF802500294ADF80C40ADF820
:1038E00010406946304600F05BFB0821304600F08E
:1038F00087FB0121304600F004FA0121304600F038
:10390000F6F9054940F2DC50403108600AB0BDE8E4
:10391000F081000000080240000401400CB50022C4
:10392000274900920192086840F4803008604FF403
:10393000A043086800F4003001900098401C0090FB
:10394000019810B900989842F3D10868800334D5E3
:10395000012001901A484030026842F08052026013
:103960001848026842F44042026015480830026874
:103970000260026842F400420260026842F4A0520F
:103980000260031F104A1A600A6842F080720A60DF
:103990000A689201FCD50D4940F205720A6001687F
:1039A00021F003010160016841F00201016001683A
:1039B000C1F381010229FAD10CBD01920CBD0000B6
:1039C000003802400070004008544007003C0240AC
:1039D000F0B5174E174F059D44F2A014002803DAE6
:1039E00034602044386002E03C60201A30601248A5
:1039F000002903DA44632144816302E08463611A8D
:103A000041630E48002A03DA44631119816302E01E
:103A10008463A11A4163002B03DA04641919C1639A
:103A200002E0C463E11A016405480560F0BD0000CE
:103A3000344801403444014000400140000001404E
:103A40004004014000B5B0EE412AF0EE602AB0EE2D
:103A5000401A9FED490A4948D0ED001ADFED480AA7
:103A6000B5EEC01AF1EE10FA02DD71EE801A0EE02A
:103A7000B5EEC01AF1EE10FA02D271EEC01A06E0ED
:103A8000B5EEC01AF1EE10FA03D161EEA01AC0ED46
:103A9000001A3A49F5EEC02AD1ED011AF1EE10FAFA
:103AA00002DD71EE801A0EE0F5EEC02AF1EE10FA9A
:103AB00002D271EEC01A06E0F5EEC02AF1EE10FA5D
:103AC00003D161EEA01AC0ED011A2C49B5EEC02A4F
:103AD000D1ED021AF1EE10FA02DD31EE800A0EE0AD
:103AE000B5EEC02AF1EE10FA02D231EEC00A06E0BD
:103AF000B5EEC02AF1EE10FA03D121EEA00A80ED56
:103B0000020AB0EE410A02F0C5FBF0EE400AB0EE48
:103B1000410A02F0BFFBF1EE401AB0EE601A90EDE0
:103B2000000AF0EE610A03F0A1FF80ED000AB0EE9A
:103B3000620A02F0AFFBB0EE401AB0EE620A02F089
:103B4000A9FBF1EE400A90ED010A03F08FFF80ED32
:103B5000010AB0EE420A02F09DFBB0EE401AB0EE50
:103B6000420A02F097FBF1EE400A90ED020A03F0E0
:103B70007DFF80ED020A00BD0AD7233CE4800020CF
:103B80006666663F10B50120FDF7B8FA0720FDF71D
:103B9000B5FABDE810402020FDF7B0BA4FF0E021A3
:103BA0000428086903D020F004000861704740F041
:103BB0000400FAE710B504F0DBFF012803D0BDE8EC
:103BC000104004F0C9BC10BD124810B5016841F4A2
:103BD000700101601048016841F0010101600E4A66
:103BE00000210832116002680C4B1A400260031D6C
:103BF0000B4A1A60026822F48022026006480C30E8
:103C00000160FFF78BFE03494FF0006080390860C8
:103C100010BD000088ED00E000380240FFFFF6FE16
:103C20001030002470B5048C24F001040484058B4A
:103C3000048C4FF6FF7606EA0313134325F0F305D1
:103C40002B4324F00A020A4342F00101038301845A
:103C500070BDF0B5048C24F010040484078B068C2E
:103C60004FF6FF7404EA011527F4734704EA0331A1
:103C7000394304EA02220A4326F0A001294341F015
:103C8000100102830184F0BD4FF08040018A018A57
:103C900021F001010182704703480188018821F069
:103CA00001010180704700001004004003480188B2
:103CB000018821F0010101807047000010080040D8
:103CC00003480188018821F001010180704700004C
:103CD000100C00400029018802D041F0800101E071
:103CE00021F0800101807047C9430182704700299B
:103CF000018802D041F0010101E021F001010180C1
:103D00007047002930F8441F02D041F4004101E01F
:103D1000C1F30E010180704770B50589048B068CD4
:103D200025F007050D434FF6FC410C4040F2011110
:103D30000C434FF6FF7101EA031126F022061143EE
:103D4000314305810483018470BD2DE9F0410C46A7
:103D50000E884988A2882389054616B3042E28D0E8
:103D6000082E2E8C4FF6FF702BD026F480562E8412
:103D7000AF8B2E8C00EA022200EA013127F4734750
:103D80003A4300EA0330104326F420420A4342F447
:103D90008051A8832984E1882846BDE8F04100F0DD
:103DA00057B9FFF73FFFE1882846BDE8F04100F032
:103DB00033B9FFF74EFFE1882846BDE8F04100F037
:103DC00033B926F480762E84AF8B2E8C00EA012145
:103DD00000EA0310104327F0F307384326F420626B
:103DE0000A4342F48071A8832984E1882846BDE80B
:103DF000F04100F025B9002101804180012282803C
:103E0000C18001817047002A828901D00A4300E005
:103E10008A4382817047000030B5028C22F0010293
:103E20000284028C8388048B22F0020224F0730542
:103E30000C882C438D8915434A882A430C4DA8428F
:103E400002D00C4DA8420DD122F00805CA8923F4F6
:103E500040732A4322F004058A882A430D8A1D43B1
:103E60004B8A2B438380048389684163028430BD7D
:103E70000000014000040140028B22F008020A43C6
:103E80000283704770B5028C22F010020284028C0B
:103E90008388048B0D8824F4E6464FF6FF7404EA09
:103EA000052535438E8922F0200204EA06161643C2
:103EB0004A8804EA02123243104EB04202D0104E39
:103EC000B04215D122F08006CA8923F4406304EA87
:103ED0000212324322F040068A8804EA0212324378
:103EE0000E8A04EA86061E434B8A04EA83033343A0
:103EF0008380058389688163028470BD000001406E
:103F000000040140028B4FF6FF7322F4006203EAC3
:103F1000012111430183704770B5028C22F4807235
:103F20000284028C8388848B0D8824F073042543DB
:103F30008E894FF6FF7422F4007204EA06261643B7
:103F40004A8804EA02223243104EB04202D0104E98
:103F5000B04215D122F40066CA8923F4405304EA22
:103F60000222324322F480668A8804EA0222324323
:103F70000E8A04EA06161E434B8A04EA03133343EF
:103F8000838085838968C163028470BD000001401D
:103F900000040140828B22F008020A4382837047AA
:103FA00070B5028C22F480520284058C8288838B47
:103FB0000C8823F4E6464FF6FF7303EA04243443E7
:103FC00025F400568D8903EA053535434E8803EA0A
:103FD00006362E43084DA84202D0084DA84205D10E
:103FE00022F480450A8A03EA82122A43828084836B
:103FF00089680164068470BD00000140000401402E
:10400000828B4FF6FF7322F4006203EA0121114311
:104010008183704741627047028B22F00C02028359
:10402000028B0A4302837047028B22F440620283B0
:10403000028B4FF6FF7303EA01210A4302837047A4
:10404000828B22F00C028283828B0A438283704728
:10405000828B22F440628283828B4FF6FF7303EAE5
:1040600001210A438283704730B50288164C174DF0
:10407000A0420DD0A8420BD0B0F1804F08D0144B15
:10408000984205D0134B984202D0134B984203D16B
:1040900022F070034A881A43104B984206D0104B06
:1040A000984203D022F440730A891A4302804A6876
:1040B000C2620A880285A04201D0A84201D1897A51
:1040C00001860121818230BD0000014000040140D1
:1040D0000004004000080040000C004000100040B8
:1040E000001400404FF0FF31416000210180018148
:1040F00041808172704700000A2809DB0548D0F82A
:104100000C0228B104480078012801D00020704733
:104110000120704700804142A801002070B5594C31
:1041200040F22551204600F05FFB00285BD020467E
:1041300000F0E8FB544C554900252278C0B26C2AA7
:1041400051D2DFE802F0363E465154585B5E66704D
:104150005E66705E66705E66705E66705E66705EFD
:1041600066705E66705E66705E66705E66705E66E5
:10417000705E66705E66705E66705E66705E6670CB
:104180005E66705E66705E66705E66705E66705ECD
:1041900066705E66705E66705E66705E66705E66B5
:1041A000705E66705E66705E66705E66707D7D864F
:1041B0008A8EA5280FD10870012020706078A53064
:1041C00010E05A2807D148700220207060785A30D9
:1041D00008E06C2801D0257051E088700320207021
:1041E00060786C30607070BDC870042101E00871A7
:1041F0000521217014E048710621FAE78871072132
:10420000F7E7A37800F07F0503EB43031944CD7172
:1042100004E0A37803EB430319440872521C227094
:1042200061780844DEE7A378521C03EB4305294478
:104230005B1C48722270617808446070A37070BD86
:10424000521C2270617808446070A078401CA070F5
:1042500070BD81F867006A21CBE781F868006B21A7
:10426000C7E781F869002570A5706178884202D19E
:1042700001F024FF03E06A210448FCF790F965701F
:1042800070BD0000005000407C0000209C07002012
:1042900010B5064C40F22551204600F0A5FA10B1A9
:1042A000204600F02FFB002010BD00000010014050
:1042B0002DE9F04740F225512DED048BAA4800F07E
:1042C00093FA002872D0A848001D0088A74AA84C7D
:1042D000A84FA94B01210026A84D4B2808D04928FA
:1042E00008D04A2806D01B782BB1012B0BD01BE03D
:1042F00019700CE01E70A0F14103072B30D908287B
:1043000011DC107010E0432808D0472809D026702F
:104310003E7041281CD045281AD004E02670397020
:1043200001E021703E7016709FED950A954CDFF804
:104330005882DFF858929FED969ADFF858A25828D5
:1043400012D0592815D07B281FD07D2823D016E005
:104350002B695B1C2B61052B02D18F4B2E611970D1
:10436000A0F140031370DFE7D8ED000A30EE800AB9
:1043700003E0D8ED000A30EEC00A88ED000A2A7882
:10438000012A03D0022A08D0CEE02970697860544F
:10439000491C6970C8E002202870E078502806D0D7
:1043A0006078232805D06878A8702AE0D7E07B4899
:1043B0000170B0E06978081A05F0E5F841EC110BDE
:1043C0009FED770B00F0BCFAAF78B0EE408AE019B1
:1043D000F0EE608A10F8010C303805F0D4F853EC98
:1043E000182B05F037F941EC180B686905F028FC2B
:1043F00053EC182B04F056FE04F022FE7F1E686179
:10440000AF70A8780428D5D267480078062809D06C
:1044100004281CD005282FD0032852D002287AD097
:10442000C0B378E060783038032874D2DFE800F059
:1044300002070B0095ED050A88ED000A6BE095ED8B
:10444000050A5A485CE095ED050A594858E060783D
:10445000303803285FD2DFE800F002070B0095ED4B
:10446000050A89ED000A56E095ED050A514847E036
:1044700095ED050A504843E06078303805284AD267
:10448000DFE800F003090D11180095ED050A8AED2B
:10449000000A40E029E095ED050A484830E095ED36
:1044A000050A47482CE095ED050ABDEEC00A85EDEA
:1044B000020A30E095ED050ABDEEC00A85ED030A5B
:1044C00029E060783038032825D2DFE800F00206C2
:1044D0000A0095ED050A3B4812E095ED050A3A48B9
:1044E0000EE095ED050A39480AE060783038042876
:1044F00011D2DFE800F00202020895ED050A344807
:1045000080ED000A07E095ED050A3249BCEEC00ACD
:1045100010EE100A08802E706E70AE7085ED059A50
:1045200032211848FCF719F898ED000AB5EEC00AD8
:10453000F1EE10FA01D288ED009A99ED000AB5EE7D
:10454000C00AF1EE10FA01D289ED009A9AED000A44
:10455000B5EEC00AF1EE10FA01D28AED009A002001
:10456000BDEC048BBDE8F08700440040C901002089
:10457000EC010020ED010020EE0100205800002099
:104580000000C84268070020AC010020FC010020A8
:104590000000000000020020C8010020EF01002000
:1045A0000000000000002440F1010020C0010020B4
:1045B000C4010020B0010020B4010020B801002097
:1045C000BC010020A4000020A8000020AC000020B6
:1045D00010010020160100202DE9F041484F40F263
:1045E000255504242946384600F0FEF800281DD041
:1045F000A8462946384600F090F8384600F082F97F
:10460000404E0123C0B23179002506F1180231B1C4
:1046100001290CD0022914D003294AD009E02C2802
:1046200007D13371F1785054491CF17064E01228BD
:1046300004D035710020F570641C5BE002203071FD
:104640005AE0F1785054491CC9B2F170042901DADA
:104650005B2851D150542C48491CF170D0ED030A0D
:10466000B2EE041A80EE810AD0ED020AB4EE001A0E
:1046700030EE200ABCEEC00A10EE101AD17090ED98
:10468000000AF0EE400A40EE010ABCEEE00A10EE2D
:10469000100A10711D4890ED000ABCEEC00A10EE21
:1046A000100A50711A4800789071032030717371AC
:1046B00022E0F078104410F8010C5B2804D035712A
:1046C0000020F570641C10E0002244464146384644
:1046D00000F0A9F87571F570357101222146384650
:1046E00000F0A1F808E01554401CA042FBDB03E0F9
:1046F0001554401CA042FBDB0020BDE8F081000007
:104700000048004058000020882D002010010020A3
:1047100016010020C943018070470A0A0121914017
:10472000C943018070470029818902D041F40051BA
:1047300001E021F40051818170470000224910B549
:10474000884206D101211020FEF71EFF0021102013
:1047500020E01E49884202D101214C0429E01C4975
:10476000884202D101218C0423E01A49884202D1F7
:104770000121CC041DE01849884202D101210C0519
:1047800017E01649884209D101212020FEF7FCFEDE
:1047900000212020BDE81040FEF7F6BE10498842F7
:1047A00002D101218C0704E00E4988420AD101217F
:1047B00044052046FEF7D0FE2046BDE8104000210B
:1047C000FEF7CABE10BD00000010014000440040CA
:1047D00000480040004C00400050004000140140E0
:1047E00000780040007C004070B501F01F050126F4
:1047F0000024C1F3421306FA05F2012B0FD0022B5D
:104800000FD0838A4FEA11210088134206FA01F67D
:1048100000EA060001D000B10124204670BD838962
:10482000F0E7038AEEE710B5C1F3421301F01F046D
:104830000121A140012B07D0022B07D01430002A00
:10484000026805D00A4304E00C30F8E71030F6E7C0
:104850008A43026010BD00007FB50446008A0D4601
:10486000C98820F4405001432182A08941F20C61A3
:104870008843A9882A8911436A8902431143A18187
:10488000A08A20F44071A8890843A0826846FEF7F8
:1048900087FE1A48844202D01948844201D1039805
:1048A00000E00298A189090400EBC00101EB0010AF
:1048B000296801D5490000E08900B0FBF1F06422CD
:1048C000B0FBF2F109010B096FF018056B4300EB27
:1048D0008300A3891D044FF0320306D503EBC0000B
:1048E000B0FBF2F000F0070005E003EB0010B0FBB6
:1048F000F2F000F00F00084320817FBD001001405E
:10490000001401408088C0F308007047FEE703B43C
:1049100001984100009850EAC12018BF04204A0DB8
:1049200018BF40F0010040F2FF72B2EB515F08BFC8
:1049300040F00200012808BF052002B070470000C7
:104940002DE9F04D2DED040B2DED0E8B96B0DDE92C
:104950002550279CDDF890A025F0004624F0004863
:10496000BAF1000F14BF0121002101EB4502FC49FF
:1049700053184A1093422AD3002814BF012300235E
:1049800003EB44030B44F7498B4220D358EA000160
:104990009FEDF59B76D0DFF8D8B35D4503D1BAF132
:1049A000000F05D188E0BAF1000F08BF002100D048
:1049B000012101EB450111F5001F08D8002814BFA3
:1049C0000121002101EB440111F5001F0BD99DEDE0
:1049D000261B9DED240B16B0BDEC0E8B04B0BDE87C
:1049E000F04D01F077BA0027002DBCBFE1498845A2
:1049F00021DAE1498845A8BF02271CDAC3451ADC41
:104A0000DE4901EB2851142908DDC1F1340220FAF6
:104A100002F101FA02F282420DD108E058B9C1F167
:104A2000140228FA02F101FA02F2424503D101F020
:104A30000101C1F1020756EA0A0124D1002C22DA51
:104A4000002D18BF022F01D0012F0AD00220FBF742
:104A5000D6FD16B0BDEC0E8B04B0BDE8F04D01F0F4
:104A600017BA0220FBF7CBFD01F012FA51EC100B44
:104A700004F0DAFA41EC100B16B0BDEC0E8B04B06A
:104A8000BDE8F08D18E09FEDBEAB9FEDBF8B002819
:104A900071D1B848804522D105F1804010F58010D1
:104AA00008BFBAF1000F07D0B3450ADC002CA8BF3D
:104AB0009DED260BE0DA0DE0B0EE490AF0EE690A52
:104AC000DAE7002C06DA9DED260B51EC100B04F012
:104AD000ABFA6FE0AE48784490ED000BCCE7D845D8
:104AE0004DD1002C48DA2EB186423AD1BAF1000FEE
:104AF00042D126E0BAF1000F13D00220FBF77FFD70
:104B000001F002FA8DED020B9DED240B8DED000BF3
:104B100010EE900A039961F31E0003909DED020BC5
:104B2000AAE78DED02AB9DED240B1AEE901A10EE64
:104B3000900A8DED000B61F31E0003909DED020BBA
:104B40009AE78DED028B9DED240B18EE901A10EE76
:104B5000900A8DED000B61F31E0003909DED020B9A
:104B60008AE709DA9DED240B51EC190B53EC102B5D
:104B700004F054FB1EE020E09DED240B7CE7864210
:104B80001BDAB4F1804F0DD0A4F10050B0F1FF500A
:104B900013D1002D11DB9DED240B51EC100B02F015
:104BA00087FE07E09DED240B53EC102B51EC100B0E
:104BB00000F0C2BC41EC100B5EE79DED240B51EC04
:104BC000100B01F05BFBBAF1000FCDE90E0142D1F1
:104BD0009FED710B46B3A6F1E040B0F17F600CD0C1
:104BE0005E4538D1002D00DAA7B3022F0CBF01209B
:104BF0004FF0FF3004F0C7FCDCE7002D01DD002C96
:104C00000DDA002D01DD002C1FDB002D16DA002C43
:104C100014DB012F08BF9FED620B3FF42DAFB0EE08
:104C20004A0AF0EE6A0A27E7022F18BF002D0CD0BF
:104C3000012F0AD1002DFFF61FAF06E0002DB8BFEF
:104C4000002C08DA012F3FF417AFB0EE480AF0EE5F
:104C5000680A11E71BE0012000EBE57050EA07014C
:104C600015D0791EB0EE498AF0EE698A084308BF74
:104C70009FED4D8B4E480025804570DD4D494E48D7
:104C8000884514DDB0420DDB002C19DB2FE001203C
:104C9000FBF7B5FC16B0BDEC0E8B04B0BDE8F04DD3
:104CA00001F022B9B34502DC002C09DC1FE086428A
:104CB00002DA002C1BDA03E05E452BDD002C16DD4A
:104CC0000220FBF79CFC01F01FF98DED020B53EC69
:104CD0001A2B51EC180B04F0BDFCCDE9000103992F
:104CE000019861F31E0003909DED020BC4E60220C3
:104CF000FBF785FC01F018F910EE901A18EE900AF7
:104D00008DED020B8DED008B61F31E0003909DED88
:104D1000020BB1E69DED0E0B53EC192B51EC100B71
:104D200004F0A4FE9FED260BCDE9080153EC102BF7
:104D30009DED080B51EC100B04F08CFC9FED221B39
:104D400053EC112B04F0BAFD9DED081B53EC112B15
:104D500004F080FC9FED1E1B53EC112B3CE08CE01B
:104D6000FFFF1F00FFFF0F00000000000000F03FEA
:104D70000000F03F0000F07F0000404301FCFFFF17
:104D8000000000000000F07F0000000000000000B4
:104D90007E680000000000000000000000000080AD
:104DA000000000000000F0FF000000000000F0BF65
:104DB0000000E0410000F043FFFFEF3F0000000073
:104DC000000000000000D03F555555555555D53FC2
:104DD000000000000000E03F04F070FD9DED080BB6
:104DE00041EC1A0B53EC102B51EC100B04F032FC7D
:104DF00053EC1A2B04F02EFC41EC1A0B9FEDFE0B2A
:104E000053EC102B9DED080B51EC100B04F022FC21
:104E100041EC1B0B9FEDFA0B51EC1A0B53EC102BD2
:104E200004F018FC41EC1A0B9FEDF70B53EC102B20
:104E30009DED080B51EC100B04F00CFC53EC1A2BFD
:104E400004F014FE41EC1A0B51EC1B0B53EC1A2B23
:104E500004F028F90690CDE906519DED060B53ECC0
:104E60001B2B51EC100B04F001FE53EC1A2B04F039
:104E700025FD41EC100B00F0A1B90020B6F5801F14
:104E80000EDA9FEDE30B53EC102B9DED0E0B51EC66
:104E9000100B04F0DFFBCDE90E016FF034000E467D
:104EA00000EB2650A0F2FF37C6F31300DA4940F0BA
:104EB0007F6646F040568842D8BF002408DDD749B7
:104EC0008142C8BF012403DC0024A6F580167F1CA4
:104ED000D348784400EBC4000F9690ED00CB9DEDD5
:104EE0000E0B53EC1C2B51EC100B04F0BFFD9DED91
:104EF0000E0B41EC1B0B53EC1C2B51EC100B04F074
:104F0000D1F841EC100B51EC190B53EC102B04F0C1
:104F100085F941EC1D0B51EC1B0B53EC1D2B04F0E0
:104F200099FB41EC1A0BBF488DED10AB78441095FE
:104F300090ED000B4FF0005040EA660000EB84401B
:104F40008DED080B00F5002009909DED080B53EC4A
:104F50001C2B51EC100B04F089FD9DED0E1B53EC46
:104F6000112B04F0ABFC41EC100B53EC102B9DED1E
:104F7000100B51EC100B04F06DFB9DED080B41EC98
:104F80001C0B53EC102B9DED100B51EC100B04F08F
:104F900061FB53EC1B2B04F091FC53EC1C2B04F035
:104FA00065FD53EC1D2B04F055FB41EC1C0B53EC41
:104FB0001A2B51EC1A0B04F04DFB41EC1B0B9A48D9
:104FC0000621B0EE4B0AF0EE6B0A784400F03CFD8F
:104FD000B0EE401AF0EE601AB0EE41DAF0EE61DAAF
:104FE00053EC1B2B51EC1B0B04F034FB53EC1D2B2F
:104FF00004F030FB9DED100B41EC1B0B53EC1A2B16
:1050000051EC100B04F04EF853EC1C2B04F022FB77
:1050100053EC1B2B04F046F89DED100B41EC1B0BE1
:1050200053EC102B51EC100B04F014FB41EC1D0B56
:105030009FED7FEB53EC1E2B04F034F853EC1B2B4D
:1050400004F030F80890CDE908519DED080B53ECC1
:105050001E2B51EC100B04F009FD53EC1D2B04F03A
:1050600005FD53EC1B2B04F029FC9DED080B41ECD6
:105070001D0B53EC102B9DED100B51EC100B04F09D
:10508000E9FA41EC1B0B53EC1A2B51EC1D0B04F00D
:10509000E1FA9DED080B41EC1A0B53EC102B51EC8F
:1050A0001C0B04F0D7FA53EC1A2B03F0FBFF41EC76
:1050B0001A0B51EC1B0B53EC1A2B03F0F3FF0C9063
:1050C000CDE90C519DED0C0B53EC1B2B51EC100B4F
:1050D00004F0CCFC53EC1A2B04F0F0FB41EC1B0B5E
:1050E0009FED550B53EC102B9DED0C0B51EC100B61
:1050F00004F0B0FA41EC1A0B9FED510B51EC1B0B75
:1051000053EC102B04F0A6FA41EC1B0B9FED4E0B59
:1051100053EC102B9DED0C0B51EC100B04F09AFA94
:1051200053EC1B2B03F0BEFF41EC100B48487844B6
:1051300000EBC40090ED001B51EC100B53EC112B55
:1051400003F0B0FF41EC1B0B384604F01CFACDE92C
:10515000080153EC1B2B51EC1A0B03F0A3FF41EC9D
:10516000100B3C48784400EBC40090ED00CB51ECB0
:10517000100B53EC1C2B03F095FF9DED081B53EC1B
:10518000112B03F08FFF0690CDE906519DED080B22
:1051900053EC102B9DED060B51EC100B04F066FC4C
:1051A00053EC1C2B04F062FC53EC1A2B04F05EFC55
:1051B00053EC1B2B04F082FB41EC100B9DED261BE6
:1051C00053EC102B8DED001B00959DED260B51EC43
:1051D000100B04F03FFA9DED000B41EC1A0B53EC61
:1051E000102B9DED260B51EC100B04F03FFC9DEDB8
:1051F000061B53EC112B2FE0000000604715F73F12
:10520000FE822B654715F73F44DF5DF80BAE543E39
:1052100000000000000040438E9803007AB60B00A7
:10522000FA63000028640000326300000000000000
:105230000000000000000840000000E009C7EE3F49
:10524000FD033ADC09C7EE3FF5015B14E02F3EBEDB
:10525000BE6100007861000004F0FCF953EC1A2BE9
:1052600003F020FF9DED060B41EC1A0B53EC102BC5
:105270009DED000B51EC100B04F0ECF9CDE90C01A5
:105280009DED0C0B51EC1A0B53EC102B03F00AFFA5
:10529000CDE902010C46AA498C422FDB611A084372
:1052A00018D19DED0C0B53EC102B9DED020B51EC26
:1052B000100B04F0DBFB41EC1B0B9FEDA30B51EC3F
:1052C0001A0B53EC102B03F0EDFE53EC1B2B04F0E8
:1052D000BFFA2DD20220FBF792F900F015FE10EE76
:1052E000901A18EE900A8DED020B8DED008B61F394
:1052F0001E0003909DED020BFFF7BEBB944A24F005
:105300000041914214D39349214408437FF4EFAC08
:105310009DED0C0B53EC102B9DED020B51EC100B83
:1053200004F0A4FB53EC1A2B04F092FA7FF6DFACE6
:1053300024F000408849894A002601EB205182422E
:105340002BDA481C4FF4801121FA00F02044844AE3
:10535000C0F30A517A44A1F2FF3192ED000B814A69
:105360008DED080BCA4020EA0202C0F3130040F49E
:105370008010C1F1140120FA01F60992002CB8BF87
:1053800076429DED080B53EC102B9DED0C0B51EC70
:10539000100B04F06BFBCDE90C019DED0C0B51ECF7
:1053A0001A0B53EC102B03F07DFE9FED6F0B089052
:1053B000CDE9085153EC102B9DED080B51EC100B6F
:1053C00004F048F941EC1B0B9FED690B53EC102BDB
:1053D0009DED080B51EC100B04F03CF99DED0C0B0E
:1053E00041EC1C0B53EC102B9DED080B51EC100BFA
:1053F00004F03CFB53EC1A2B04F060FA9FED5E1BAB
:1054000053EC112B04F026F953EC1C2B03F04AFE4D
:1054100041EC1A0B51EC1B0B53EC1A2B03F042FE20
:10542000CDE902019DED020B53EC1B2B51EC100B4F
:1054300004F01CFB53EC1A2B04F040FA9DED020B18
:1054400041EC1A0B53EC102B51EC100B04F002F949
:10545000CDE908014A489DED080B0521784400F08C
:10546000F3FA9DED081B51EC100B53EC112B04F0DB
:10547000F1F89DED021B53EC112B04F01FFACDE95E
:1054800006019DED020B53EC1A2B51EC100B04F0AE
:10549000E1F853EC1A2B03F005FE9FED3B0B41ECBA
:1054A0001A0B53EC102B9DED060B51EC100B04F076
:1054B000DDFA9DED060B41EC1B0B53EC102B9DED23
:1054C000020B51EC100B04F0C5F853EC1B2B03F04E
:1054D000A5FE53EC1A2B04F0C9FA9DED021B53EC08
:1054E000112B04F0C3FA53EC192B04F0E7F9CDE9C2
:1054F000020101EB065001150029C8BF039015DC1D
:105500009DED020B324651EC100B04F046FCFFF708
:10551000FEF9042808BF00F007FD32469DED020B9E
:1055200051EC100B04F039FCCDE902019DED020BAA
:1055300051EC180B53EC102B04F08CF8FFF73ABB2E
:105540000000904000000000FE822B654715973C4C
:1055500000CC904000346F3F01FCFFFF0000E03FB3
:1055600000600000FFFF0F0000000000432EE63F38
:10557000396CA80C615C20BEEF39FAFE422EE63F82
:10558000D05E0000000000000000000000000040AD
:1055900010B51D499FED1A1B2DED020B84B0059827
:1055A00020F000408842DCBF01209DED040B21DD8E
:1055B0001649884209D1049840B94FF00100FBF721
:1055C0001EF800F091FC06B010BD05DB9DED040B4C
:1055D00000F076FC06B010BD68469DED040B00F0AF
:1055E00017F800F001000121A1EB40009DED021B26
:1055F0009DED000B00F0A4FA06B010BD0000000005
:105600000000000000000000FB21E93F0000F07FE7
:105610002DE9F14F04462DED020B2DED088B8AB0DC
:105620009FEDE70B80ED020B139EE74826F0004547
:1056300085420ADC9DED120B002084ED000B0AB0C0
:10564000BDEC088B03B0BDE8F08FE0489FEDE0AB08
:105650009FEDE1BBA84247DDE14F9FEDE39B9FED4E
:10566000E48B9DED120B53EC1A2B51EC100B002E1A
:105670001CDD04F0FBF941EC100BBD4208D053ECEB
:105680001B2B51EC100B04F0F1F9C4E900010BE005
:1056900053EC192B51EC100B04F0E8F953EC182BD8
:1056A00004F0E4F9C4E900010120C8E703F0FAFCC2
:1056B00041EC100BBD4208D053EC1B2B51EC100BEE
:1056C00003F0F0FCC4E900010BE053EC192B51ECA2
:1056D000100B03F0E7FC53EC182B03F0E3FCC4E9D8
:1056E00000014FF0FF30AAE7C348A84279DB9DEDE7
:1056F000120B51EC100B00F0C1FD41EC180B9FEDAB
:10570000C00B53EC102B03F0A5FF9FEDBF1B53EC18
:10571000112B03F0C7FC03F0D9FE074603F033FF5B
:1057200041EC190B53EC1A2B03F094FF53EC182B9C
:1057300004F0C4F841EC180B53EC1B2B51EC190B83
:1057400003F088FFDFF8C8A241EC100B4FEA1558B0
:105750000125FA4453EC102B51EC180B04F086F998
:10576000032DC4E900013DD0C1F30A5005EB4511FA
:10577000A8EB00001139814234DA0AEB051BB0EEC8
:1057800048AA9BED000BF0EE68AA53EC102B51ECED
:10579000190B03F05FFF41EC1B0B51EC1A0B53ECA0
:1057A0001B2B04F063F941EC180B51EC1A0B53EC72
:1057B000182B04F05BF953EC1B2B04F057F99BED0D
:1057C000020B41EC1A0B53EC102B51EC190B03F0AC
:1057D00041FF53EC1A2B04F049F941EC100B6D1CFE
:1057E000B8E70EE0002EA8BF3846BFF628AF94ED0C
:1057F000000B51EC100B03F017FCC4E900017842D8
:105800001DE7C6F3130040F4801EC6F30A50A0F251
:10581000F530471100F01F05C5F12000DDF848B054
:1058200008900020069007900520EC467949002D4D
:1058300007EB0002794408BF51F8221009D051F853
:10584000223001EB8201AB404A68089922FA01F14B
:105850001943A1FB0E26A1FB0B131A449A4234BF35
:105860000123002303EB06080CEB8003D3E901A618
:105870000E448E4234BF0121002192448A4411B16A
:10588000924502D903E0924501D2012100E00021B6
:10589000C3E901A641444CF82010011EA0F101000B
:1058A000C4DC029800F10050850F0298DDE903671F
:1058B0008000DDF8148003F066FE41EC1A0B3046E0
:1058C00003F078FE9FED541B53EC112B03F0C2FE46
:1058D00041EC1B0B384603F06DFE9FED511B53EC62
:1058E000112B03F0B7FE41EC180B404603F062FEAB
:1058F0009FED4D1B53EC112B03F0ACFE41EC190B4B
:1059000051EC180B53EC192B03F0CCFB53EC1B2B75
:1059100003F0C8FB53EC1A2B03F0C4FBCDE90801DC
:10592000002008909DED080B53EC1A2B51EC100B46
:1059300004F09CF853EC1B2B04F098F853EC182B54
:1059400004F094F853EC192B03F0B8FF9FED381BCB
:1059500053EC112B03F07EFE9FED370B41EC180B3F
:1059600053EC102B9DED080B51EC100B03F072FE65
:1059700053EC182B03F096FB9FED310B41EC180B09
:1059800053EC102B9DED080B51EC100B03F062FE55
:1059900053EC182B03F086FB41EC100B139810F01E
:1059A000004F06D06D4251EC100B03F03DFB41EC73
:1059B000100B284684ED000B41E6000000000000BB
:1059C0000000000000000000FB21E93F7CD90240FC
:1059D00000004054FB21F93F3163621A61B4D03DAD
:1059E000FB21F93F000000000000601A61B4D03DC7
:1059F0007370032E8A19A33BFB213941000000007C
:105A000083C8C96D305FE43F000000000000E03F44
:105A10000A5C0000585B0000000000000000103E1F
:105A2000000000000000103C000000000000103AE0
:105A3000182D4454FB21F93D3326A611460B113C89
:105A400000000054FB21F93D70B504462DED028B9A
:105A50004D1E00EBC500B0EE408AF0EE608A90ED7E
:105A6000000B35F0060017D053EC182B51EC100B3F
:105A700003F0F0FD41EC100B6D1E04EBC50090ED42
:105A8000001B51EC100B53EC112B03F00BFB41EC02
:105A9000100B35F00600E7D1022D36D0042D1CD0B6
:105AA000062D1CBFBDEC028B70BD53EC182B51ECC6
:105AB000100B03F0CFFD94ED0A1B53EC112B03F0F8
:105AC000F1FA53EC182B03F0C5FD94ED081B53ECD1
:105AD000112B03F0E7FA41EC100B53EC182B51ECAF
